:1000000060EF0BF0F76A140FF66E000EF72209008E
:10001000F5501200000000000000005F0000000723
:10002000000700147F147F14242A7F2A1223130848
:10003000646236495620500008070300001C224124
:10004000000041221C002A1C7F1C2A08083E0808C8
:100050000080703000080808080800006060002078
:10006000100804023E5149453E00427F400072495B
:100070004949462141494D331814127F10274545FF
:1000800045393C4A49493141211109073649494915
:1000900036464949291E0000140000004034000083
:1000A00000081422411414141414004122140802EC
:1000B000015909063E415D594E7C1211127C7F495F
:1000C0004949363E414141227F4141413E7F4949B4
:1000D00049417F090909013E414151737F080808E0
:1000E0007F00417F41002040413F017F08142241B1
:1000F0007F404040407F021C027F7F0408107F3E0B
:100100004141413E7F090909063E4151215E7F0977
:1001100019294600F76A240FF66E010EF72209002E
:10012000F5501200264949493203017F01033F403F
:1001300040403F1F2040201F3F4038403F6314088D
:10014000146303047804036159494D43007F41411E
:10015000410204081020004141417F0402010204D1
:100160004040404040000307080020545478407F3E
:10017000284444383844444428384444287F385478
:1001800054541800087E090218A4A49C787F08041F
:10019000047800447D40002040403D007F1028440A
:1001A0000000417F40007C047804787C08040478D7
:1001B0003844444438FC1824241818242418FC7C9F
:1001C00008040408485454542404043F44243C4084
:1001D00040207C1C2040201C3C4030403C442810E7
:1001E00028444C9090907C4464544C440008364120
:1001F00000000077000000413608000201020402FE
:10020000F76A100FF66E020EF7220900F550120081
:10021000427562626C6520536F727400F76A2C0F2E
:10022000F66E020EF7220900F550120053656C6558
:100230006374696F6E20536F72740000F76A4C0F1D
:10024000F66E020EF7220900F5501200696E736512
:100250007274696F6E20536F72740000F76A6C0FCE
:10026000F66E020EF7220900F55012006D657267F6
:100270006520536F72740000F76A880FF66E020EE5
:10028000F7220900F55012005368656C6C20536F1B
:1002900072740000F76AA40FF66E020EF7220900CE
:1002A000F550120057616974696E6720666F72209D
:1002B000496E707574732E2E2E2E0000F76ACC0FC7
:1002C000F66E020EF7220900F5501200414C4C2048
:1002D000534F525445440000486F77204D616E796A
:1002E000204E756D6265727320746F20736F727427
:1002F0005B3C3D313329000056616C7565206F66AB
:10030000206E2069732025640A000A4E756D6265AF
:1003100072732052656365697665642E2E2E2E4CAD
:100320006F6F6B204174204F4C454420666F7220E4
:10033000736F7274696E6700040EEA6EE50EE96E03
:10034000EF500DE0020E016E006A002EFED7012E66
:10035000FBD7970E006E002EFED7EF2EF3D71200BC
:10036000C69E9E96EAC4C9FF020EC6BE05D09EA6D2
:10037000FED7000EC5BC010E016E12000401E96B30
:10038000C580C5B0FED70AC0EAF40001E9DFE9C4C0
:10039000EAF4E6DFE8C4EAF4E3DFC584C5B4FED7D7
:1003A0001200B7C40BF0B8C40AF00A0E0401E56FDE
:1003B0000001C2DF8A9493940A0E0401E56F0001E4
:1003C000BBDF8A84AE0E0401E86F0001D7DFD50ED3
:1003D0000401E86F0001D2DF800E0401E86F000124
:1003E000CDDFA80E0401E86F0001C8DF3F0E040155
:1003F000E86F0001C3DFD30E0401E86F0001BEDF28
:100400000401E86B0001BADF400E0401E86F00014F
:10041000B5DF8D0E0401E86F0001B0DF0401B72DD8
:1004200006D0100EE86F0001A9DF05D00401140EFC
:10043000E86F0001A3DF200E0401E86F00019EDFDA
:100440000401E86B00019ADFA10E0401E86F0001CE
:1004500095DFC80E0401E86F000190DFDA0E040199
:10046000E86F00018BDF120E0401E86F000186DFE8
:10047000810E0401E86F000181DF0401B72D06D071
:100480009F0EE86F00017ADF05D00401CF0EE86F00
:10049000000174DFD90E0401E86F00016FDF040171
:1004A000B72D06D0220EE86F000168DF05D00401E9
:1004B000F10EE86F000162DFDB0E0401E86F00015E
:1004C0005DDF400E0401E86F000158DFA40E040157
:1004D000E86F000153DFA60E0401E86F00014EDF54
:1004E0002E0E0401E86F000149DFAF0E0401E86F32
:1004F000000144DF0C6A0D6A010E0E6E49EF0DF02B
:10050000210E0401E86F000139DF0401E86B0001EE
:1005100035DF7F0E0401E86F000130DF220E040199
:10052000E86F00012BDF0401E86B000127DF070EF5
:100530000401E86F000122DF0401E66BE56BE65180
:1005400003082CE3C580C5B0FED70AC0EAF4000159
:1005500007DF400E0401EA6F000102DF0401E76BD0
:10056000E7510F0810E3100EE525E96E000EE621B5
:10057000EA6EEFCFEAF40001F3DE0401E52BD8B414
:10058000E62BE72BEDD7E551D8B4E607E507C584A0
:10059000C5B4FED7E52BD8B4E62BD1D700011200A5
:1005A0000401E66BE56BE65103080BE3100EE5254D
:1005B000E96E000EE621EA6EEF6AE52BD8B4E62B71
:1005C000F2D7000112000401E8517F0803E3E9516A
:1005D0003F0801E204D0E8C40CF0E9C40DF00001CA
:1005E000A0EF05F00401E85302E1010EE86FE8C452
:1005F0000EF00001A3EF05F0050117517F0803E39A
:1006000018513F0801E26ED0195336E01831006EE0
:10061000003200321F0E001600501B6B1A6F1A3585
:10062000026E1B35036E023603360236033602367F
:100630000336023603360236033602360336800EA0
:100640000216025017251A6F000E03201B6F100EA2
:100650001A25E96E000E1B21EA6E1851070B016E78
:10066000010E006E015204E0D8900036012EFCD736
:100670000050EF10EF6E36D01831006E00320032AD
:100680001F0E001600501B6B1A6F1A35026E1B35B9
:10069000036E02360336023603360236033602365E
:1006A00003360236033602360336800E0216025037
:1006B00017251A6F000E03201B6F100E1A25E96E06
:1006C000000E1B21EA6E1851070B016E010E006E21
:1006D000015204E0D8900036012EFCD70050FF0AEA
:1006E000EF14EF6E00011200050106910401FF51A5
:1006F0000501035D146F00510459156F036E145109
:1007000015AF08D0000ED8801455006E000E155598
:10071000036E0050146F03C015F50401FD5105016F
:10072000015D166F0401FE5105010259176F036E3A
:10073000165117AF08D0000ED8801655006E000E67
:100740001755036E0050016E03AE03D015AF0AD0EB
:1007500002D015BF08D00350155D05E303E1145125
:10076000015C01E2068106A118D0FEC40DF5FDC4AE
:100770000CF500C5FEF4FFC4FDF40DC500F50CC575
:10078000FFF402C50FF501C50EF504C502F503C55A
:1007900001F50FC504F50EC503F502AF04D0040141
:1007A000FEAF12D003D00401FEBF26D005010251D6
:1007B0000401FE5D21E308E1FD510501015DD8A0C2
:1007C00002D0040119D00401FEC411F5FDC410F5D6
:1007D00002C5FEF401C5FDF411C502F510C501F511
:1007E00000C513F5FFC412F504C500F503C5FFF4F9
:1007F00013C504F512C503F5FD510501015D006E39
:100800000401FE510501025900C008F50401FF5121
:100810000501035D146F00510459156F036E1451E7
:1008200015AF08D0000ED8801455006E000E155577
:10083000036E0050096FD8900831036A0A6F03C035
:100840000BF500AF03D004AF0FD002D004BF0FD020
:100850000051045D0CE308E103510401FF5DD8A0E1
:1008600002D0050104D00501010E076F01D0076910
:100870000401FEAF04D0050102AF0FD003D0050183
:1008800002BF4FD00401FE510501025D4AE305E1BC
:100890000401FD510501015D44E306A115D0055396
:1008A0000AE0FFC417F5FDC418F5010E196F000129
:1008B000A3DE08D00501FFC417F5FDC418F5196BB8
:1008C00000019ADE14D0050105530AE0FDC417F5B6
:1008D000FFC418F5010E196F00018EDE08D0050166
:1008E000FDC417F5FFC418F5196B000185DE05017D
:1008F00009510A5F000E0B5B0BAF0DD0036A075165
:10090000E8BE03060401FF27035005010023085138
:100910000A27000E0B230401FD2BD8B4FE2BA9D708
:1009200005010001A9EF04F00401FA51F925FF0FB8
:10093000FC6FFE6BF8C4FDF40501006BF9C4FFF415
:10094000026BF8C401F5046B036FFBC405F50001ED
:10095000CBD6C3EF04F0036A0401F1C4F6F403C07C
:10096000F7F4F351F125F7BF04D0F75311E1F65D29
:100970000FE2F6C4F8F4F2C4F9F4F4C4FAF4F5C4DE
:10098000FBF40001D1D70401F62BD8B4F72BE9D73B
:10099000000112000401E951200805E10C5203E1B5
:1009A0000FA001D0C5D0E951070804E10D6A0DC0C0
:1009B0000CF0BED0E95108080AE10E50060DF350C4
:1009C0000C5C05E30E50060DF3500C5EB1D0E951FE
:1009D0000D0802E10C6AACD0E9510A080CE10E5096
:1009E000080DF3500D260E50070DF3500D2440084E
:1009F00001E20D6A9DD0E9511F0803E2E9517E082A
:100A000002E23F0EE96FEB6BEB5104085DE3E95145
:100A100052080EE3200EE95D050DF350EB25036A45
:100A2000000102EC00F0016EE8CFEDF40CD00401FF
:100A3000530EE95D050DF350EB25036A00018AECC6
:100A400000F0E8CFEDF40401EC6BEC5106083AE35A
:100A5000EDA102D0EA8101D0EA910E2C14D0EB5125
:100A60000C24EE6FEC510D24EF6F000EEAB1010E75
:100A7000F06FEEC417F5EFC418F5E8CF19F50001D3
:100A8000BBDD1AD00401EB510E02F3500C24EE6FC3
:100A9000EC510E02F3500D24EF6F000EEAB1010E7F
:100AA000F06FEEC4F1F4EFC4F2F40EC0F3F40EC034
:100AB000F4F4F56F00014FDF0401EC51EC2BD890FA
:100AC000ED33C3D7EB2BA0D70E50050DF3500C24FC
:100AD000EE6F0E50070DF3CFF4F4EEC4F1F40DC039
:100AE000F2F40EC0F3F4F56B000135DF0E50060D85
:100AF000F3500C260E50060DF350800F0C5C03E0F3
:100B000002E3800E0C6E0FA012D00E50050DF350B4
:100B10000C2480080CE20C6A0E50080DF3500D26D0
:100B20000E50070DF3500D24400801E20D6A040138
:100B30000001A3EF05F0E3C4E8F4E4C4E9F443D50D
:100B4000E7C4E8F44FD5E6C403F00401E5C4E9FFC7
:100B5000E6C4EAFFEF5210E0E6C403F0E551E52BEE
:100B6000D8B4E62BE96E03C0EAFFEFCFE9F4000149
:100B700011D70001E8D70401000112000900F55265
:100B80000DE0F6CFB7F4F7CFB8F4F5509EA8FED736
:100B9000AD6EB7C4F6FFB8C4F7FFF0D7120003502C
:100BA000200808E00350080803E203500D0802E2A1
:100BB000016A02D0010E016E01EF06F00401BD6B67
:100BC000BCAF02D0BB5325E09EAAFED7AECF01F04A
:100BD00001C003F003521DE0BD2B035020080FE2BB
:100BE000BC81BCBD09D0BAC4EAFFB9C4E9FF03C0E7
:100BF000EFFFB92BD8B4BA2BBCBFBB07E1D70001BC
:100C0000CED7015204E00401BCB103D0D9D704010E
:100C1000BD6BBCBD05D0BAC4EAFFB9C4E9FFEF6A39
:100C2000BDC401F000011200EF5210E0EACFB8F4A9
:100C3000E9CFB7F4EF509EA8FED7AD6EB8C4EAFF77
:100C4000B7C4E9FFE92AD8B4EA2AEED71200006A4D
:100C5000016A0401C051D890C1B1002600320132AE
:100C6000C1B3002600320132C1B500260032013284
:100C7000C1B7002600320132C1B90026003201326C
:100C8000C1BB002600320132C1BD00260032013254
:100C9000C1BF0026003201320001B7EF06F00401A7
:100CA000BE6BBC6B0A0EBD6FBB6BB951BA1103E1D1
:100CB000000E016EBBD0BE51BE2BB925E96E000EF1
:100CC000BA21EA6EEFCFBFF4BF512D080CE1010E3F
:100CD000BC6FBE51BE2BB925E96E000EBA21EA6E7B
:100CE000EFCFBFF40CD0BF512B0809E1BE51BE2B92
:100CF000B925E96E000EBA21EA6EEFCFBFF4BF51FD
:100D00002F08D8B08BD0BF513908D8A087D0BF5199
:100D100030081EE1BE51B925E96E000EBA21EA6E17
:100D2000EF50780809E0BE51B925E96E000EBA21EE
:100D3000EA6EEF5058080CE1100EBD6FBE2BBE518D
:100D4000BE2BB925E96E000EBA21EA6EEFCFBFF4D3
:100D5000BD510A081CE1BF512F0818E2BF513908E4
:100D600015E30A0EC06FBBC4C1F4000170D7300E8A
:100D70000401BF5D0124BB6FBE51BE2BB925E96ED6
:100D8000000EBA21EA6EEFCFBFF4E5D747D0BD51D0
:100D9000100844E1BF51600806E2BF517A0803E33E
:100DA000BF51DF0B01D0BF51BF6FBF512F0803E20E
:100DB000BF51390806E2BF51400830E2BF51460832
:100DC0002DE3BF512F080CE2BF51390809E3BB39AD
:100DD000C06FF00EC017300EBF5DC025BB6F09D0CD
:100DE000BB39C06FF00EC017410EBF5D0A0FC025A2
:100DF000BB6FBE51BE2BB925E96E000EBA21EA6E5B
:100E0000EFCFBFF4BF51600806E2BF517A0803E399
:100E1000BF51DF0B01D0BF51BF6FC7D7BC2D04D06E
:100E2000BD510A0801E1BB6DBBC401F00001120015
:100E30000900F6CFB8F4F7CFB9F4F5509EA8FED765
:100E4000AD6EB8C4F6FFB9C4F7FF0401B72F01D0E7
:100E500002D00001EDD70001DDEF0DF00401BE511D
:100E6000016ABD5D03E2BDC400F00CD0006A080E4B
:100E7000BF6FBD370036BE51005CD8B0006E013682
:100E8000BF2FF7D700011200200E0401B8A9300EC1
:100E9000B96FB7C400F0B7AF08D0001E002A00C079
:100EA000B7F42D0EB96FB88FB8810150B7C4BDF437
:100EB000640EBE6F0001D2DF00C0B7F4300E012413
:100EC0000401BA6FB7C4BDF40A0EBE6F0001C6DFDD
:100ED000300E00240401BC6F300E0124BB6FB9C476
:100EE00000F0300EBA5D04E0B883B8BFB88512D008
:100EF000B9C4BAF4200EB96F300EBB5D04E0B881FE
:100F0000B8BFB88307D0D8A4B88104E1BAC4BBF491
:100F1000200EBA6FB8B505D0B8B307D0B8B109D0B4
:100F20000CD0B9519EA8FED7AD6EBA519EA8FED77F
:100F3000AD6EBB519EA8FED7AD6EBC519EA8FED72C
:100F4000AD6E0001E5EF0DF0D0EC02F00401E46BB2
:100F5000E351E45D16E2E4510A0DF3CFF1F4E451FC
:100F6000E125E96E000EE221EA6EEFCFF4F4F26BB8
:100F7000050EF36F010EF56F0001EDDC0401E42BAB
:100F8000E7D7000180EC02F0C80E0401E56F000114
:100F90009CEC01F012000401BC6BBB51BC5D16E27D
:100FA000BC51B925016E000EBA21036EBC51B725A4
:100FB000E96E000EB821EA6EEFCFBFF403C0EAFF7E
:100FC00001C0E9FFBFC4EFFFBC2BE7D7000112004F
:100FD000040EEA6EBA0EE96E0F0E016EF76A000E8D
:100FE0000EEC01F00A000900F5CFEEFF012EFBD751
:100FF000020E0401E36F070EE46F040EE66FBA0EF3
:10100000E56F010EE76F000196DD80EC02F0040E43
:101010000401CD6FFA0EE56F00019CEC01F00401B4
:10102000CD2FF8D7B8C4E2F4B7C4E1F4B9C4E3F4FF
:1010300000018ADF0401C96B010EB95DC95D56E28A
:10104000C9C4CBF4010EC925CA6FB951CA5D15E2F6
:10105000CA51B725E96E000EB821EA6EEFCFCDF484
:10106000CB51B725E96E000EB821EA6EEF50CD5D89
:1010700002E2CAC4CBF4CA2BE8D7C951B725E96E3E
:10108000000EB821EA6EEFCFCCF4C951B725016E3E
:10109000000EB821036ECB51B725E96E000EB821C2
:1010A000EA6EEFCFCFF403C0EAFF01C0E9FFCFC47F
:1010B000EFFFCB51B725E96E000EB821EA6ECCC424
:1010C000EFFFB8C4E2F4B7C4E1F4B9C4E3F400013B
:1010D0003BDF020E0401CD6FFA0EE56F00019CECC0
:1010E00001F00401CD2FF8D7C92BA6D7000181EF5D
:1010F0000EF0040EEA6EBA0EE96E0C0E016EF76A7F
:10110000000E00EC01F00A000900F5CFEEFF012E01
:10111000FBD7020E0401E36F070EE46F040EE66FC7
:10112000BA0EE56F010EE76F000105DD80EC02F0FD
:10113000040E0401C96FFA0EE56F00019CEC01F08A
:101140000401C92FF8D7B8C4E2F4B7C4E1F4B9C4B4
:10115000E3F40001F9DE0401C66B010EB95DC65D62
:1011600056E2C76BC651B95DFF0FC75D4EE2C7516E
:10117000B725E96E000EB821EA6EEFCFC9F4010E73
:10118000C725B725E96E000EB821EA6EEF50C95D9C
:101190003AE039E3C751B725E96E000EB821EA6E8F
:1011A000EFCFC8F4C751B725016E000EB821036E0A
:1011B000010EC725B725E96E000EB821EA6EEFCF04
:1011C000CBF403C0EAFF01C0E9FFCBC4EFFF010E7F
:1011D000C725B725E96E000EB821EA6EC8C4EFFF37
:1011E000B8C4E2F4B7C4E1F4B9C4E3F40001ACDE7E
:1011F000020E0401C96FFA0EE56F00019CEC01F0CC
:101200000401C92FF8D7C72BADD7C62BA6D700012D
:10121000A5EF0EF0040EEA6EBA0EE96E0F0E016E27
:10122000F76A000E1EEC01F00A000900F5CFEEFF90
:10123000012EFBD7020E0401E36F070EE46F040ECC
:10124000E66FBA0EE56F010EE76F000174DC80EC0B
:1012500002F0040E0401CC6FFA0EE56F00019CEC65
:1012600001F00401CC2FF8D7B8C4E2F4B7C4E1F41C
:10127000B9C4E3F4000168DE010E0401C96FB9517D
:10128000C95D4AE2C951B725E96E000EB821EA6E80
:10129000EFCFCBF4010EC95DCA6FCA51B725E96E15
:1012A000000EB821EA6EEF50CB5D2BE2010ECA258D
:1012B000B725016E000EB821036ECA51B725E96E3D
:1012C000000EB821EA6EEFCFCEF403C0EAFF01C0F2
:1012D000E9FFCEC4EFFF010ECA5FB8C4E2F4B7C4A1
:1012E000E1F4B9C4E3F400012FDE020E0401CC6F77
:1012F000FA0EE56F00019CEC01F00401CC2FF8D749
:10130000CCD7010ECA25B725E96E000EB821EA6ECA
:10131000CBC4EFFFC92BB3D70001C9EF0EF0040E09
:10132000EA6EBA0EE96E0B0E016EF76A000E2EEC35
:1013300001F00A000900F5CFEEFF012EFBD7020EE7
:101340000401E36F070EE46F040EE66FBA0EE56F5B
:10135000010EE76F00019BEC05F080EC02F0040E3B
:101360000401E16FFA0EE56F00019CEC01F004014D
:10137000E12FF8D7010EDC6FB951DC5DD8B000D198
:10138000DD6BDB6BDC51DD25B95DD8B4A5D0D8A011
:10139000A3D0DC51DD25FF0FDE6F010EDE25DF6FF0
:1013A000DC51DF25FF0FE06FB951E05D03E3010E73
:1013B000B95DE06FDDC4D9F4DFC4DAF4D951DE5D84
:1013C0004BE3DA51E05D48E3D951B725E96E000EF1
:1013D000B821EA6EEFCFE1F4DA51B725E96E000EDD
:1013E000B821EA6EEF50E15D01E01BE2DB51DB2B3F
:1013F000036AC50F016E040E032201C0E1F403C0AD
:10140000E2F4D951D92BB725E96E000EB821EA6E66
:10141000EFCFE3F403C0EAFF01C0E9FFE3C4EFFF4D
:101420001AD0DB51DB2B036AC50F016E040E0322B9
:1014300001C0E1F403C0E2F4DA51DA2BB725E96E1A
:10144000000EB821EA6EEFCFE3F403C0EAFF01C05B
:10145000E9FFE3C4EFFFB2D7D951DE5D1BE3DB51F7
:10146000DB2B036AC50F016E040E032201C0E1F4F9
:1014700003C0E2F4D951D92BB725E96E000EB8218B
:10148000EA6EEFCFE3F403C0EAFF01C0E9FFE3C473
:10149000EFFFE2D7DA51E05D1BE3DB51DB2B036AA0
:1014A000C50F016E040E032201C0E1F403C0E2F493
:1014B000DA51DA2BB725E96E000EB821EA6EEFCFCC
:1014C000E3F403C0EAFF01C0E9FFE3C4EFFFE2D7A2
:1014D000010EE025DD6F56D7DDC4D9F4B951DB5DCF
:1014E0001BE2DB51DB2B036AC50F016E040E0322E6
:1014F00001C0E1F403C0E2F4D951B725E96E000E52
:10150000B821EA6EEFCFE3F403C0EAFF01C0E9FFC0
:10151000E3C4EFFFD92BE2D7D96BB951D95D1AE2F9
:10152000D951B725016E000EB821036E01C0E1F458
:10153000E26F036AD951C50FE96E040E0320EA6E0B
:10154000EFCFE3F4E2C4EAFF01C0E9FFE3C4EFFF39
:10155000D92BE3D7B8C4E2F4B7C4E1F4B9C4E3F4D7
:101560000001F2DC020E0401E16FFA0EE56F0001EA
:101570009CEC01F00401E12FF8D7D890DC37FCD6C1
:101580000001EDEF0EF0040EEA6EBA0EE96E0B0EDE
:10159000016EF76A000E3CEC01F00A000900F5CF7D
:1015A000EEFF012EFBD7020E0401E36F070EE46F7E
:1015B000040EE66FBA0EE56F010EE76F00019BECBB
:1015C00005F080EC02F0040E0401C96FFA0EE56F1D
:1015D00000019CEC01F00401C92FF8D7B8C4E2F473
:1015E000B7C4E1F4B9C4E3F40001AEDC0401C56B97
:1015F000C66BC76BC86BD890B931C76FC7535DE076
:10160000C7C4C6F4B951C65D55E2C751C65DC56FC2
:10161000C751C525B725E96E000EB821EA6EEFCF98
:10162000C9F4C551B725E96E000EB821EA6EEF5036
:10163000C95D02E33DD039D0C551B725E96E000E32
:10164000B821EA6EEFCFC8F4C551B725016E000E80
:10165000B821036EC751C525B725E96E000EB82124
:10166000EA6EEFCFCBF403C0EAFF01C0E9FFCBC4C1
:10167000EFFFC751C525B725E96E000EB821EA6E08
:10168000C8C4EFFFB8C4E2F4B7C4E1F4B9C4E3F4EA
:1016900000015ADC020E0401C96FFA0EE56F000169
:1016A0009CEC01F00401C92FF8D7C751C55FB0D732
:1016B000C62BA8D7D890C733A1D7000111EF0FF0E0
:1016C000F86AD09E700ED36ED350B8960C0EAF6EE3
:1016D000A20EAC6E900EAB6EC86A280EC66EC78E98
:1016E000C79C0F800401116B106BC150C00B0F0918
:1016F000C16E070EB46E9AD1020004000003001000
:1017000000FFFF04C0030280838304C0C302808300
:101710008315C003038083038307C003038083030F
:101720008305C003038083038307C0030F80830303
:101730008303830383038303830383038305C0033A
:1017400001808305C003038083038309C0030380F2
:1017500083C3E305C0F30380E3C3830EC0030A80A1
:10176000FF00FFFF0000001E7F7F04C0FF03807F9B
:101770007F1E11C0003E80143E7F2373E3E3A3402D
:10178000F8FEAE070303ABFFFE00A8FFFF67E3E729
:10179000FF3F0A000203A3FFFF07030702D0FF7FFA
:1017A0000A40FAFF2F7CF8C0EAFFAF01E8FEAE075F
:1017B0002363E3F7A207C0000380070F1F05C03FA4
:1017C00003801F0F0704C00004C08006C00004800F
:1017D000FF00FFFF05C0000280C0C004C0E00D8014
:1017E000C0C00000003C7EFFE7E7FF7E3C05C00074
:1017F00001800205C00616800303020003070606E7
:10180000060703030000070702000007070404C0DF
:10181000001E8006070200000002070700000707FD
:101820000700000007070700000307060602070776
:101830000714C00001803C08C0FF08803C00000085
:10184000FF00FFFF04C0000380071F1F04C03F0309
:10185000801F1F0707C0000E8080C0E87C2EFCF8A8
:10186000400000A8FCFE0404C0004280E0F8B81C60
:101870008ECC8ECC8800A0F8B81C0E0CACFCF850B6
:1018800080F4FEFC8E8CACFCF800A0FCFE04080C7E
:101890008EFCFE7C0E0C0E00E8FCAEC080C0E8FCA6
:1018A000BE0480F0FCFCFA0000C0E8FCFEDC09C0CD
:1018B0000004C00106C0000A80FF00FFFF00000016
:1018C0008080800DC0003B80081C1E0F0706061795
:1018D0001F1F00040F1F1A1C181808000F1F1E1CC2
:1018E000081D1F1F02000F1F1A18181C0E0F0300DF
:1018F0001A1F0F01031F1F1C00001E1F0A000000FB
:101900001A1F0F04C00021801D1F0F000100151FAA
:101910001F02101E1F02011F1F0E07001F1F0500C0
:101920000000C0E0703070E0C009C0000D80FF0012
:10193000FFFF1C3F7F7F737F7F3F1E0DC000308005
:1019400010F8F0A00000C0E0702800E0F0A800E06F
:10195000F0B8303830300080F0F850000000F0F877
:1019600070000080F0F8F0F8C000000040F8F020AF
:1019700004C0001080C0F8F020003830B8F0F8F053
:101980003800A0F0F005C030098000C0F870383091
:10199000B0F0E004C0000780010307060703010957
:1019A000C0000480FF00FFFF08C000088070F8FC42
:1019B0008C8CFCF87007C00051802B7F7A7C3E0F26
:1019C0000300207D7F1F0060636763673E7F2E00FA
:1019D0002A7F7F6060703A3F0F40787E1F1F181D7E
:1019E0007F7F2800287F7F6560606000287F3F053B
:1019F0006078787E6E636060003C7F7F62676267BC
:101A000022006A7F3F070E7E7E77020AC0000E80AA
:101A1000387CEEC6EE7C38000000FF00FFFF0AC0F5
:101A2000C004C0C16EC0C00180FF0000000EF86E8F
:101A3000160EF76EF80EF66E0900F550006E000AED
:101A400013E00900F550016EE8BE05D00F0BEA6EF9
:101A50000900F5CFE9FF01BC090001AC0900F5CF91
:101A6000EEFF004EE9D7F9D7F86A700ED36ED35067
:101A7000040EB76FFA0EE56F00019CEC01F0040153
:101A8000B72FF8D7020EB76F7A0EB86F0001D1EFFB
:101A900001F080EC02F0080E0401B76FFA0EE56F5A
:101AA00000019CEC01F00401B72FF8D70001D0EC45
:101AB00002F0040EEA6E120EE96E170E016EF76A5E
:101AC000000E4AEC01F00A000900F5CFEEFF012EEE
:101AD000FBD7020E0401E36F070EE46F040EE66FFE
:101AE000120EE56F010EE76F00019BEC05F080EC34
:101AF00002F0020E0401B76FFA0EE56F00019CECD4
:101B000001F00401B72FF8D7D80EF66E020EF76E6B
:101B10000001BEEC05F00A0E9EA8FED7AD6E0D0EBC
:101B20009EA8FED7AD6E0401296B9EAA29D0B76B83
:101B3000B86B040EBA6F2A0EB96FBC6BBB6B000199
:101B4000DEEC05F0015204E10401B86B05D00001A0
:101B500001500401B727B82B040EEA6E2A0EE96E75
:101B6000000114EC06F00D0E9EA8FED7AD6E0A0E15
:101B70009EA8FED7AD6E0401292B292D01D001D0DE
:101B8000D4D7040EBA6F2A0EB96F00014FEC06F0DD
:101B900001C02FF40401296B0A0E9EA8FED7AD6E7A
:101BA0000D0E9EA8FED7AD6EF80EF66E020EF76E05
:101BB0000E0EB76F000118EF07F02FC4B7F4180E20
:101BC0000401B86F000144EF07F00A0E9EA8FED78B
:101BD000AD6E0A0E9EA8FED7AD6E0D0E9EA8FED766
:101BE000AD6E0401306B316BA96B9EAA43D0B76B0D
:101BF000B86B040EBA6F950EB96FBC6BBB6B00016E
:101C0000DEEC05F0015204E10401B86B05D00001DF
:101C100001500401B727B82B040EEA6E950EE96E49
:101C2000000114EC06F00D0E9EA8FED7AD6E0A0E54
:101C30009EA8FED7AD6E0401A951A92B036A300FEF
:101C4000016E040E032201C0B7F403C0B8F4040E01
:101C5000BA6F950EB96F00014FEC06F0B8C4EAFFF9
:101C6000B7C4E9FF01C0EFFF0401292B2F51295D03
:101C700001E101D0BAD70A0EF66E030EF76E00012D
:101C8000BEEC05F0D0EC02F0040E0401E26F300E61
:101C9000E16F2FC4E3F40001A4EC07F0040E04018B
:101CA000B76FFA0EE56F00019CEC01F00401B72F4D
:101CB000F8D70001D0EC02F00401AA6BAB6BAC6B5F
:101CC000AD6BAE6BAF6BB06BB16BB26BB36BB46B38
:101CD000B56BB66B040EB86F300EB76F040EBA6FEB
:101CE000AA0EB96F2FC4BBF40001CBEC07F0040EB1
:101CF0000401B86FAA0EB76F2FC4B9F40001E8EF62
:101D000007F0D0EC02F0020E0401B76FFA0EE56F97
:101D100000019CEC01F00401B72FF8D7040EB86F56
:101D2000300EB76F040EBA6FAA0EB96F2FC4BBF492
:101D30000001CBEC07F0040E0401B86FAA0EB76FD8
:101D40002FC4B9F4000179EF08F0D0EC02F0020ED4
:101D50000401B76FFA0EE56F00019CEC01F004017D
:101D6000B72FF8D7040EB86F300EB76F040EBA6FE6
:101D7000AA0EB96F2FC4BBF40001CBEC07F0040E20
:101D80000401B86FAA0EB76F2FC4B9F400010AEFAF
:101D900009F0D0EC02F0020E0401B76FFA0EE56F05
:101DA00000019CEC01F00401B72FF8D7040EB86FC6
:101DB000300EB76F040EBA6FAA0EB96F2FC4BBF402
:101DC0000001CBEC07F0040E0401B86FAA0EB76F48
:101DD0002FC4B9F400018FEF09F0D0EC02F0020E2D
:101DE0000401B76FFA0EE56F00019CEC01F00401ED
:101DF000B72FF8D7040EB86F300EB76F040EBA6F56
:101E0000AA0EB96F2FC4BBF40001CBEC07F0040E8F
:101E10000401B86FAA0EB76F2FC4B9F40001C3EF65
:101E20000AF0D0EC02F0020E0401B76FFA0EE56F73
:101E300000019CEC01F00401B72FF8D70001D0ECB1
:101E400002F0040EEA6E120EE96E0B0E016EF76AD6
:101E5000000E5EEC01F00A000900F5CFEEFF012E46
:101E6000FBD7020E0401E36F070EE46F040EE66F6A
:101E7000120EE56F010EE76F00019BEC05F080ECA0
:041E800002F0030069
:020000040030CA
:0E00000027C8381E0007A1000FC00FE00F40F8
:00000001FF
;PIC18F4550
;CRC=904B  CREATED="03-Jun-20 19:21"
